{
  "contractName": "UniswapInterfaceMulticall",
  "abi": [
    {
      "inputs": [],
      "name": "getCurrentBlockTimestamp",
      "outputs": [
        {
          "internalType": "uint256",
          "name": "timestamp",
          "type": "uint256"
        }
      ],
      "stateMutability": "view",
      "type": "function"
    },
    {
      "inputs": [
        {
          "internalType": "address",
          "name": "addr",
          "type": "address"
        }
      ],
      "name": "getEthBalance",
      "outputs": [
        {
          "internalType": "uint256",
          "name": "balance",
          "type": "uint256"
        }
      ],
      "stateMutability": "view",
      "type": "function"
    },
    {
      "inputs": [
        {
          "components": [
            {
              "internalType": "address",
              "name": "target",
              "type": "address"
            },
            {
              "internalType": "uint256",
              "name": "gasLimit",
              "type": "uint256"
            },
            {
              "internalType": "bytes",
              "name": "callData",
              "type": "bytes"
            }
          ],
          "internalType": "struct UniswapInterfaceMulticall.Call[]",
          "name": "calls",
          "type": "tuple[]"
        }
      ],
      "name": "multicall",
      "outputs": [
        {
          "internalType": "uint256",
          "name": "blockNumber",
          "type": "uint256"
        },
        {
          "components": [
            {
              "internalType": "bool",
              "name": "success",
              "type": "bool"
            },
            {
              "internalType": "uint256",
              "name": "gasUsed",
              "type": "uint256"
            },
            {
              "internalType": "bytes",
              "name": "returnData",
              "type": "bytes"
            }
          ],
          "internalType": "struct UniswapInterfaceMulticall.Result[]",
          "name": "returnData",
          "type": "tuple[]"
        }
      ],
      "stateMutability": "nonpayable",
      "type": "function"
    }
  ],
  "bytecode": "0x608060405234801561001057600080fd5b50610a3c806100206000396000f3fe608060405234801561001057600080fd5b50600436106100415760003560e01c80630f28c97d146100465780631749e1e3146100645780634d2301cc14610095575b600080fd5b61004e6100c5565b60405161005b9190610704565b60405180910390f35b61007e6004803603810190610079919061053c565b6100cd565b60405161008c92919061071f565b60405180910390f35b6100af60048036038101906100aa9190610513565b61033e565b6040516100bc9190610704565b60405180910390f35b600042905090565b60006060439150825167ffffffffffffffff811115610115577f4e487b7100000000000000000000000000000000000000000000000000000000600052604160045260246000fd5b60405190808252806020026020018201604052801561014e57816020015b61013b61035f565b8152602001906001900390816101335790505b50905060005b835181101561033857600080600086848151811061019b577f4e487b7100000000000000000000000000000000000000000000000000000000600052603260045260246000fd5b6020026020010151600001518785815181106101e0577f4e487b7100000000000000000000000000000000000000000000000000000000600052603260045260246000fd5b602002602001015160200151888681518110610225577f4e487b7100000000000000000000000000000000000000000000000000000000600052603260045260246000fd5b60200260200101516040015192509250925060005a90506000808573ffffffffffffffffffffffffffffffffffffffff16858560405161026591906106ed565b60006040518083038160008787f1925050503d80600081146102a3576040519150601f19603f3d011682016040523d82523d6000602084013e6102a8565b606091505b509150915060005a846102bb9190610831565b90506040518060600160405280841515815260200182815260200183815250898981518110610313577f4e487b7100000000000000000000000000000000000000000000000000000000600052603260045260246000fd5b602002602001018190525050505050505050808061033090610920565b915050610154565b50915091565b60008173ffffffffffffffffffffffffffffffffffffffff16319050919050565b604051806060016040528060001515815260200160008152602001606081525090565b600061039561039084610774565b61074f565b9050808382526020820190508260005b858110156103d557813585016103bb8882610486565b8452602084019350602083019250506001810190506103a5565b5050509392505050565b60006103f26103ed846107a0565b61074f565b90508281526020810184848401111561040a57600080fd5b6104158482856108ad565b509392505050565b60008135905061042c816109d8565b92915050565b600082601f83011261044357600080fd5b8135610453848260208601610382565b91505092915050565b600082601f83011261046d57600080fd5b813561047d8482602086016103df565b91505092915050565b60006060828403121561049857600080fd5b6104a2606061074f565b905060006104b28482850161041d565b60008301525060206104c6848285016104fe565b602083015250604082013567ffffffffffffffff8111156104e657600080fd5b6104f28482850161045c565b60408301525092915050565b60008135905061050d816109ef565b92915050565b60006020828403121561052557600080fd5b60006105338482850161041d565b91505092915050565b60006020828403121561054e57600080fd5b600082013567ffffffffffffffff81111561056857600080fd5b61057484828501610432565b91505092915050565b6000610589838361067f565b905092915050565b600061059c826107e1565b6105a68185610804565b9350836020820285016105b8856107d1565b8060005b858110156105f457848403895281516105d5858261057d565b94506105e0836107f7565b925060208a019950506001810190506105bc565b50829750879550505050505092915050565b61060f81610877565b82525050565b6000610620826107ec565b61062a8185610815565b935061063a8185602086016108bc565b610643816109c7565b840191505092915050565b6000610659826107ec565b6106638185610826565b93506106738185602086016108bc565b80840191505092915050565b60006060830160008301516106976000860182610606565b5060208301516106aa60208601826106cf565b50604083015184820360408601526106c28282610615565b9150508091505092915050565b6106d8816108a3565b82525050565b6106e7816108a3565b82525050565b60006106f9828461064e565b915081905092915050565b600060208201905061071960008301846106de565b92915050565b600060408201905061073460008301856106de565b81810360208301526107468184610591565b90509392505050565b600061075961076a565b905061076582826108ef565b919050565b6000604051905090565b600067ffffffffffffffff82111561078f5761078e610998565b5b602082029050602081019050919050565b600067ffffffffffffffff8211156107bb576107ba610998565b5b6107c4826109c7565b9050602081019050919050565b6000819050602082019050919050565b600081519050919050565b600081519050919050565b6000602082019050919050565b600082825260208201905092915050565b600082825260208201905092915050565b600081905092915050565b600061083c826108a3565b9150610847836108a3565b92508282101561085a57610859610969565b5b828203905092915050565b600061087082610883565b9050919050565b60008115159050919050565b600073ffffffffffffffffffffffffffffffffffffffff82169050919050565b6000819050919050565b82818337600083830152505050565b60005b838110156108da5780820151818401526020810190506108bf565b838111156108e9576000848401525b50505050565b6108f8826109c7565b810181811067ffffffffffffffff8211171561091757610916610998565b5b80604052505050565b600061092b826108a3565b91507fffffffffffffffffffffffffffffffffffffffffffffffffffffffffffffffff82141561095e5761095d610969565b5b600182019050919050565b7f4e487b7100000000000000000000000000000000000000000000000000000000600052601160045260246000fd5b7f4e487b7100000000000000000000000000000000000000000000000000000000600052604160045260246000fd5b6000601f19601f8301169050919050565b6109e181610865565b81146109ec57600080fd5b50565b6109f8816108a3565b8114610a0357600080fd5b5056fea26469706673582212208f451de4bbb2881be78f3d39dde3c873b8be77a886ae8bfa760fd2d5b2207ad264736f6c63430008010033",
  "immutableReferences": {},
  "source": "/**\n *Submitted for verification at BscScan.com on 2022-05-07\n*/\n\n// SPDX-License-Identifier: MIT\npragma solidity 0.8.1;\npragma abicoder v2;\n\n/// @notice A fork of Multicall2 specifically tailored for the Uniswap Interface\ncontract UniswapInterfaceMulticall {\n    struct Call {\n        address target;\n        uint256 gasLimit;\n        bytes callData;\n    }\n\n    struct Result {\n        bool success;\n        uint256 gasUsed;\n        bytes returnData;\n    }\n\n    function getCurrentBlockTimestamp() public view returns (uint256 timestamp) {\n        timestamp = block.timestamp;\n    }\n\n    function getEthBalance(address addr) public view returns (uint256 balance) {\n        balance = addr.balance;\n    }\n\n    function multicall(Call[] memory calls) public returns (uint256 blockNumber, Result[] memory returnData) {\n        blockNumber = block.number;\n        returnData = new Result[](calls.length);\n        for (uint256 i = 0; i < calls.length; i++) {\n            (address target, uint256 gasLimit, bytes memory callData) =\n                (calls[i].target, calls[i].gasLimit, calls[i].callData);\n            uint256 gasLeftBefore = gasleft();\n            (bool success, bytes memory ret) = target.call{gas: gasLimit}(callData);\n            uint256 gasUsed = gasLeftBefore - gasleft();\n            returnData[i] = Result(success, gasUsed, ret);\n        }\n    }\n}",
  "sourcePath": "/work/MonkeySwap/SmartContract/mm/contracts/Multicall.sol",
  "compiler": {
    "name": "solc",
    "version": "0.8.1+commit.df193b15.Emscripten.clang"
  },
  "schemaVersion": "3.4.15",
  "updatedAt": "2023-08-29T17:51:47.038Z",
  "devdoc": {
    "kind": "dev",
    "methods": {},
    "version": 1
  },
  "userdoc": {
    "kind": "user",
    "methods": {},
    "notice": "A fork of Multicall2 specifically tailored for the Uniswap Interface",
    "version": 1
  }
}